{
  "contractName": "Staking",
  "abi": [
    {
      "inputs": [
        {
          "internalType": "address",
          "name": "erc20",
          "type": "address"
        },
        {
          "internalType": "uint256[]",
          "name": "settings",
          "type": "uint256[]"
        }
      ],
      "stateMutability": "nonpayable",
      "type": "constructor"
    },
    {
      "inputs": [
        {
          "internalType": "address",
          "name": "",
          "type": "address"
        }
      ],
      "name": "whitelist",
      "outputs": [
        {
          "internalType": "bool",
          "name": "",
          "type": "bool"
        }
      ],
      "stateMutability": "view",
      "type": "function"
    },
    {
      "inputs": [
        {
          "internalType": "uint256",
          "name": "amount",
          "type": "uint256"
        },
        {
          "internalType": "address",
          "name": "erc721",
          "type": "address"
        },
        {
          "internalType": "uint256",
          "name": "tokenID",
          "type": "uint256"
        }
      ],
      "name": "stake",
      "outputs": [],
      "stateMutability": "nonpayable",
      "type": "function"
    },
    {
      "inputs": [
        {
          "internalType": "address",
          "name": "erc721",
          "type": "address"
        },
        {
          "internalType": "uint256",
          "name": "tokenID",
          "type": "uint256"
        }
      ],
      "name": "claimReward",
      "outputs": [],
      "stateMutability": "nonpayable",
      "type": "function"
    },
    {
      "inputs": [
        {
          "internalType": "address",
          "name": "erc721",
          "type": "address"
        },
        {
          "internalType": "uint256",
          "name": "tokenID",
          "type": "uint256"
        }
      ],
      "name": "calculateRewardFor",
      "outputs": [
        {
          "internalType": "uint256",
          "name": "",
          "type": "uint256"
        }
      ],
      "stateMutability": "view",
      "type": "function"
    },
    {
      "inputs": [
        {
          "internalType": "uint256",
          "name": "amount",
          "type": "uint256"
        },
        {
          "internalType": "uint256",
          "name": "timeDiff",
          "type": "uint256"
        }
      ],
      "name": "calculateReward",
      "outputs": [
        {
          "internalType": "uint256",
          "name": "",
          "type": "uint256"
        }
      ],
      "stateMutability": "view",
      "type": "function"
    }
  ],
  "bytecode": "0x608060405260006008553480156200001657600080fd5b5060405162001edb38038062001edb83398181016040528101906200003c91906200055e565b60008160008151811062000079577f4e487b7100000000000000000000000000000000000000000000000000000000600052603260045260246000fd5b602002602001015111620000c4576040517f08c379a0000000000000000000000000000000000000000000000000000000008152600401620000bb90620006c2565b60405180910390fd5b60008160048151811062000101577f4e487b7100000000000000000000000000000000000000000000000000000000600052603260045260246000fd5b6020026020010151116200014c576040517f08c379a00000000000000000000000000000000000000000000000000000000081526004016200014390620006a0565b60405180910390fd5b8060028151811062000187577f4e487b7100000000000000000000000000000000000000000000000000000000600052603260045260246000fd5b602002602001015181600181518110620001ca577f4e487b7100000000000000000000000000000000000000000000000000000000600052603260045260246000fd5b60200260200101511080156200026357508060038151811062000216577f4e487b7100000000000000000000000000000000000000000000000000000000600052603260045260246000fd5b60200260200101518160028151811062000259577f4e487b7100000000000000000000000000000000000000000000000000000000600052603260045260246000fd5b6020026020010151115b620002a5576040517f08c379a00000000000000000000000000000000000000000000000000000000081526004016200029c906200067e565b60405180910390fd5b816000806101000a81548173ffffffffffffffffffffffffffffffffffffffff021916908373ffffffffffffffffffffffffffffffffffffffff1602179055508060008151811062000320577f4e487b7100000000000000000000000000000000000000000000000000000000600052603260045260246000fd5b60200260200101516003819055508060018151811062000369577f4e487b7100000000000000000000000000000000000000000000000000000000600052603260045260246000fd5b602002602001015160048190555080600281518110620003b2577f4e487b7100000000000000000000000000000000000000000000000000000000600052603260045260246000fd5b602002602001015160058190555080600381518110620003fb577f4e487b7100000000000000000000000000000000000000000000000000000000600052603260045260246000fd5b60200260200101516009819055506200046862015180826004815181106200044c577f4e487b7100000000000000000000000000000000000000000000000000000000600052603260045260246000fd5b60200260200101516200047660201b62000b6f1790919060201c565b600681905550505062000889565b6000818362000486919062000758565b905092915050565b6000620004a56200049f8462000718565b620006e4565b90508083825260208201905082856020860282011115620004c557600080fd5b60005b85811015620004f95781620004de888262000547565b845260208401935060208301925050600181019050620004c8565b5050509392505050565b600081519050620005148162000855565b92915050565b600082601f8301126200052c57600080fd5b81516200053e8482602086016200048e565b91505092915050565b60008151905062000558816200086f565b92915050565b600080604083850312156200057257600080fd5b6000620005828582860162000503565b925050602083015167ffffffffffffffff811115620005a057600080fd5b620005ae858286016200051a565b9150509250929050565b6000620005c760158362000747565b91507f5374616b696e673a20626164206d6178696d756d7300000000000000000000006000830152602082019050919050565b600062000609601b8362000747565b91507f5374616b696e673a20626164206d6178207374616b65206461797300000000006000830152602082019050919050565b60006200064b60108362000747565b91507f5374616b696e673a2062616420617072000000000000000000000000000000006000830152602082019050919050565b600060208201905081810360008301526200069981620005b8565b9050919050565b60006020820190508181036000830152620006bb81620005fa565b9050919050565b60006020820190508181036000830152620006dd816200063c565b9050919050565b6000604051905081810181811067ffffffffffffffff821117156200070e576200070d62000826565b5b8060405250919050565b600067ffffffffffffffff82111562000736576200073562000826565b5b602082029050602081019050919050565b600082825260208201905092915050565b60006200076582620007ed565b91506200077283620007ed565b9250817fffffffffffffffffffffffffffffffffffffffffffffffffffffffffffffffff0483118215151615620007ae57620007ad620007f7565b5b828202905092915050565b6000620007c682620007cd565b9050919050565b600073ffffffffffffffffffffffffffffffffffffffff82169050919050565b6000819050919050565b7f4e487b7100000000000000000000000000000000000000000000000000000000600052601160045260246000fd5b7f4e487b7100000000000000000000000000000000000000000000000000000000600052604160045260246000fd5b6200086081620007b9565b81146200086c57600080fd5b50565b6200087a81620007ed565b81146200088657600080fd5b50565b61164280620008996000396000f3fe608060405234801561001057600080fd5b50600436106100575760003560e01c806313ed08461461005c578063174e31c41461008c5780636e9c931c146100a857806383aae059146100c45780639b19251a146100f4575b600080fd5b61007660048036038101906100719190610dc0565b610124565b6040516100839190611366565b60405180910390f35b6100a660048036038101906100a19190610ce3565b6101b2565b005b6100c260048036038101906100bd9190610d71565b61044c565b005b6100de60048036038101906100d99190610ce3565b610916565b6040516100eb9190611366565b60405180910390f35b61010e60048036038101906101099190610c91565b610b4f565b60405161011b919061120b565b60405180910390f35b60008061013d6201518084610b8590919063ffffffff16565b905061016661015760065483610b9b90919063ffffffff16565b82610bb190919063ffffffff16565b90506101a9670de0b6b3a764000061019b8661018d85600354610b8590919063ffffffff16565b610b6f90919063ffffffff16565b610b8590919063ffffffff16565b91505092915050565b3373ffffffffffffffffffffffffffffffffffffffff168273ffffffffffffffffffffffffffffffffffffffff16636352211e836040518263ffffffff1660e01b81526004016102029190611366565b60206040518083038186803b15801561021a57600080fd5b505afa15801561022e573d6000803e3d6000fd5b505050506040513d601f19601f820116820180604052508101906102529190610cba565b73ffffffffffffffffffffffffffffffffffffffff16146102a8576040517f08c379a000000000000000000000000000000000000000000000000000000000815260040161029f906112a6565b60405180910390fd5b60006102b48383610916565b9050600081116102f9576040517f08c379a00000000000000000000000000000000000000000000000000000000081526004016102f090611226565b60405180910390fd5b600754811161033d576040517f08c379a000000000000000000000000000000000000000000000000000000000815260040161033490611266565b60405180910390fd5b600260008473ffffffffffffffffffffffffffffffffffffffff1673ffffffffffffffffffffffffffffffffffffffff168152602001908152602001600020600083815260200190815260200160002060006103999190610bdd565b60008054906101000a900473ffffffffffffffffffffffffffffffffffffffff1673ffffffffffffffffffffffffffffffffffffffff1663a9059cbb33836040518363ffffffff1660e01b81526004016103f49291906111e2565b602060405180830381600087803b15801561040e57600080fd5b505af1158015610422573d6000803e3d6000fd5b505050506040513d601f19601f820116820180604052508101906104469190610d1f565b50505050565b600454831015610491576040517f08c379a000000000000000000000000000000000000000000000000000000000815260040161048890611346565b60405180910390fd5b6009546104a984600854610bc790919063ffffffff16565b116104e9576040517f08c379a00000000000000000000000000000000000000000000000000000000081526004016104e090611286565b60405180910390fd5b600073ffffffffffffffffffffffffffffffffffffffff168273ffffffffffffffffffffffffffffffffffffffff161415610559576040517f08c379a0000000000000000000000000000000000000000000000000000000008152600401610550906112e6565b60405180910390fd5b600160008373ffffffffffffffffffffffffffffffffffffffff1673ffffffffffffffffffffffffffffffffffffffff16815260200190815260200160002060009054906101000a900460ff166105e5576040517f08c379a00000000000000000000000000000000000000000000000000000000081526004016105dc906112c6565b60405180910390fd5b8260008054906101000a900473ffffffffffffffffffffffffffffffffffffffff1673ffffffffffffffffffffffffffffffffffffffff166370a08231336040518263ffffffff1660e01b815260040161063f9190611167565b60206040518083038186803b15801561065757600080fd5b505afa15801561066b573d6000803e3d6000fd5b505050506040513d601f19601f8201168201806040525081019061068f9190610d48565b10156106d0576040517f08c379a00000000000000000000000000000000000000000000000000000000081526004016106c790611246565b60405180910390fd5b8260008054906101000a900473ffffffffffffffffffffffffffffffffffffffff1673ffffffffffffffffffffffffffffffffffffffff1663dd62ed3e33306040518363ffffffff1660e01b815260040161072c929190611182565b60206040518083038186803b15801561074457600080fd5b505afa158015610758573d6000803e3d6000fd5b505050506040513d601f19601f8201168201806040525081019061077c9190610d48565b10156107bd576040517f08c379a00000000000000000000000000000000000000000000000000000000081526004016107b490611326565b60405180910390fd5b60008054906101000a900473ffffffffffffffffffffffffffffffffffffffff1673ffffffffffffffffffffffffffffffffffffffff166323b872dd3330866040518463ffffffff1660e01b815260040161081a939291906111ab565b602060405180830381600087803b15801561083457600080fd5b505af1158015610848573d6000803e3d6000fd5b505050506040513d601f19601f8201168201806040525081019061086c9190610d1f565b50600260008373ffffffffffffffffffffffffffffffffffffffff1673ffffffffffffffffffffffffffffffffffffffff1681526020019081526020016000206000828152602001908152602001600020604051806040016040528085815260200142815250908060018154018082558091505060019003906000526020600020906002020160009091909190915060008201518160000155602082015181600101555050505050565b600080600260008573ffffffffffffffffffffffffffffffffffffffff1673ffffffffffffffffffffffffffffffffffffffff16815260200190815260200160002060008481526020019081526020016000208054905014156109ae576040517f08c379a00000000000000000000000000000000000000000000000000000000081526004016109a590611306565b60405180910390fd5b6000600260008573ffffffffffffffffffffffffffffffffffffffff1673ffffffffffffffffffffffffffffffffffffffff1681526020019081526020016000206000848152602001908152602001600020805480602002602001604051908101604052809291908181526020016000905b82821015610a6657838290600052602060002090600202016040518060400160405290816000820154815260200160018201548152505081526020019060010190610a20565b5050505090506000805b8251811015610b4357610b2f610b20848381518110610ab8577f4e487b7100000000000000000000000000000000000000000000000000000000600052603260045260246000fd5b602002602001015160000151610b1b868581518110610b00577f4e487b7100000000000000000000000000000000000000000000000000000000600052603260045260246000fd5b60200260200101516000015142610bb190919063ffffffff16565b610124565b83610bc790919063ffffffff16565b508080610b3b906114ef565b915050610a70565b50809250505092915050565b60016020528060005260406000206000915054906101000a900460ff1681565b60008183610b7d9190611419565b905092915050565b60008183610b9391906113e8565b905092915050565b60008183610ba99190611538565b905092915050565b60008183610bbf9190611473565b905092915050565b60008183610bd59190611392565b905092915050565b5080546000825560020290600052602060002090810190610bfe9190610c01565b50565b5b80821115610c2457600080820160009055600182016000905550600201610c02565b5090565b600081359050610c37816115c7565b92915050565b600081519050610c4c816115c7565b92915050565b600081519050610c61816115de565b92915050565b600081359050610c76816115f5565b92915050565b600081519050610c8b816115f5565b92915050565b600060208284031215610ca357600080fd5b6000610cb184828501610c28565b91505092915050565b600060208284031215610ccc57600080fd5b6000610cda84828501610c3d565b91505092915050565b60008060408385031215610cf657600080fd5b6000610d0485828601610c28565b9250506020610d1585828601610c67565b9150509250929050565b600060208284031215610d3157600080fd5b6000610d3f84828501610c52565b91505092915050565b600060208284031215610d5a57600080fd5b6000610d6884828501610c7c565b91505092915050565b600080600060608486031215610d8657600080fd5b6000610d9486828701610c67565b9350506020610da586828701610c28565b9250506040610db686828701610c67565b9150509250925092565b60008060408385031215610dd357600080fd5b6000610de185828601610c67565b9250506020610df285828601610c67565b9150509250929050565b610e05816114a7565b82525050565b610e14816114b9565b82525050565b6000610e27601483611381565b91507f5374616b696e673a207a65726f207265776172640000000000000000000000006000830152602082019050919050565b6000610e67602283611381565b91507f5374616b696e673a2073656e6465722062616c616e636520697320746f6f206c60008301527f6f770000000000000000000000000000000000000000000000000000000000006020830152604082019050919050565b6000610ecd601c83611381565b91507f5374616b696e673a20746f6f206c6f77206675656c20616d6f756e74000000006000830152602082019050919050565b6000610f0d601b83611381565b91507f5374616b696e673a207374616b6520706f6f6c2069732066756c6c00000000006000830152602082019050919050565b6000610f4d602983611381565b91507f5374616b696e673a2073656e646572206973206e6f74206f776e6572206f662060008301527f74686520746f6b656e00000000000000000000000000000000000000000000006020830152604082019050919050565b6000610fb3602b83611381565b91507f5374616b696e673a2065726337323120636f6e7472616374206973206e6f742060008301527f77686974656c69737465640000000000000000000000000000000000000000006020830152604082019050919050565b6000611019602883611381565b91507f5374616b696e673a2065726337323120636f6e7472616374206164647265737360008301527f206973206e756c6c0000000000000000000000000000000000000000000000006020830152604082019050919050565b600061107f601e83611381565b91507f5374616b696e673a207374616b696e6720706f6f6c20697320656d70747900006000830152602082019050919050565b60006110bf602483611381565b91507f5374616b696e673a2073656e64657220616c6c6f77616e636520697320746f6f60008301527f206c6f77000000000000000000000000000000000000000000000000000000006020830152604082019050919050565b6000611125601983611381565b91507f5374616b696e673a20616d6f756e7420746f6f20736d616c6c000000000000006000830152602082019050919050565b611161816114e5565b82525050565b600060208201905061117c6000830184610dfc565b92915050565b60006040820190506111976000830185610dfc565b6111a46020830184610dfc565b9392505050565b60006060820190506111c06000830186610dfc565b6111cd6020830185610dfc565b6111da6040830184611158565b949350505050565b60006040820190506111f76000830185610dfc565b6112046020830184611158565b9392505050565b60006020820190506112206000830184610e0b565b92915050565b6000602082019050818103600083015261123f81610e1a565b9050919050565b6000602082019050818103600083015261125f81610e5a565b9050919050565b6000602082019050818103600083015261127f81610ec0565b9050919050565b6000602082019050818103600083015261129f81610f00565b9050919050565b600060208201905081810360008301526112bf81610f40565b9050919050565b600060208201905081810360008301526112df81610fa6565b9050919050565b600060208201905081810360008301526112ff8161100c565b9050919050565b6000602082019050818103600083015261131f81611072565b9050919050565b6000602082019050818103600083015261133f816110b2565b9050919050565b6000602082019050818103600083015261135f81611118565b9050919050565b600060208201905061137b6000830184611158565b92915050565b600082825260208201905092915050565b600061139d826114e5565b91506113a8836114e5565b9250827fffffffffffffffffffffffffffffffffffffffffffffffffffffffffffffffff038211156113dd576113dc611569565b5b828201905092915050565b60006113f3826114e5565b91506113fe836114e5565b92508261140e5761140d611598565b5b828204905092915050565b6000611424826114e5565b915061142f836114e5565b9250817fffffffffffffffffffffffffffffffffffffffffffffffffffffffffffffffff048311821515161561146857611467611569565b5b828202905092915050565b600061147e826114e5565b9150611489836114e5565b92508282101561149c5761149b611569565b5b828203905092915050565b60006114b2826114c5565b9050919050565b60008115159050919050565b600073ffffffffffffffffffffffffffffffffffffffff82169050919050565b6000819050919050565b60006114fa826114e5565b91507fffffffffffffffffffffffffffffffffffffffffffffffffffffffffffffffff82141561152d5761152c611569565b5b600182019050919050565b6000611543826114e5565b915061154e836114e5565b92508261155e5761155d611598565b5b828206905092915050565b7f4e487b7100000000000000000000000000000000000000000000000000000000600052601160045260246000fd5b7f4e487b7100000000000000000000000000000000000000000000000000000000600052601260045260246000fd5b6115d0816114a7565b81146115db57600080fd5b50565b6115e7816114b9565b81146115f257600080fd5b50565b6115fe816114e5565b811461160957600080fd5b5056fea26469706673582212203ff40976022abfb92e99dd89bb649d15672b4e89c18463ddf40959b5b7a20d3164736f6c63430008000033",
  "immutableReferences": {},
  "source": "//SPDX-License-Identifier: MIT\npragma solidity ^0.8.0;\n\nimport \"@openzeppelin/contracts/token/ERC20/IERC20.sol\";\nimport \"@openzeppelin/contracts/token/ERC721/IERC721.sol\";\nimport \"@openzeppelin/contracts/utils/math/SafeMath.sol\";\n\ncontract Staking {\n    IERC20 token;\n    using SafeMath for uint256;\n\n    mapping(address => bool) public whitelist;\n    mapping(address => mapping(uint256 => Stake[])) tokenIdStakeByAsset;\n\n    uint256 _apr;\n    uint256 _minStake;\n    uint256 _maxStake;\n    uint256 _maxStakeDays;\n    uint256 _fuel;\n\n\n    uint256 _stakingAmount = 0;\n    uint256 _maxStakingAmount;\n\n\n    struct Stake {\n        uint256 amount;\n        uint256 startAt;\n    }\n\n    constructor(address erc20, uint256[] memory settings) {\n        require(settings[0] > 0, \"Staking: bad apr\");\n        require(settings[4] > 0, \"Staking: bad max stake days\");\n        require(settings[1] < settings[2] && settings[2] > settings[3], \"Staking: bad maximums\");\n\n        token = IERC20(erc20);\n        _apr = settings[0];\n        _minStake = settings[1];\n        _maxStake = settings[2];\n        _maxStakingAmount = settings[3];\n        _maxStakeDays = settings[4].mul(1 days);\n    }\n\n\n    function stake(uint256 amount, address erc721, uint256 tokenID) external {\n        require(amount >= _minStake, \"Staking: amount too small\");\n        require(_stakingAmount.add(amount) > _maxStakingAmount, \"Staking: stake pool is full\");\n        require(erc721 != address(0), \"Staking: erc721 contract address is null\");\n        require(whitelist[erc721], \"Staking: erc721 contract is not whitelisted\");\n        require(token.balanceOf(msg.sender) >= amount, \"Staking: sender balance is too low\");\n        require(token.allowance(msg.sender, address(this)) >= amount, \"Staking: sender allowance is too low\");\n\n        token.transferFrom(msg.sender, address(this), amount);\n        tokenIdStakeByAsset[erc721][tokenID].push(Stake(amount, block.timestamp));\n    }\n\n    function claimReward(address erc721, uint256 tokenID) external {\n        require(IERC721(erc721).ownerOf(tokenID) == msg.sender, \"Staking: sender is not owner of the token\");\n        uint256 reward = calculateRewardFor(erc721, tokenID);\n\n        require(reward > 0, \"Staking: zero reward\");\n        require(reward > _fuel, \"Staking: too low fuel amount\");\n\n        delete tokenIdStakeByAsset[erc721][tokenID];\n        token.transfer(msg.sender, reward);\n    }\n\n    function calculateRewardFor(address erc721, uint256 tokenID) view public returns (uint256){\n        require(tokenIdStakeByAsset[erc721][tokenID].length != 0, \"Staking: staking pool is empty\");\n\n        Stake[] memory stakes = tokenIdStakeByAsset[erc721][tokenID];\n        uint256 reward = 0;\n        for (uint i = 0; i < stakes.length; i++) {\n            reward.add(calculateReward(stakes[i].amount, block.timestamp.sub(stakes[i].amount)));\n        }\n\n        return reward;\n    }\n\n    function calculateReward(uint256 amount, uint256 timeDiff) view public returns (uint256){\n        uint256 timeDiffDays = timeDiff.div(1 days);\n        timeDiffDays = timeDiffDays.sub(timeDiffDays.mod(_maxStakeDays));\n\n        return _apr.div(timeDiffDays).mul(amount).div(1 ether);\n    }\n}\n",
  "sourcePath": "/Users/macbook/go/src/github.com/FixIT-hackathon/erc721-stake/contracts/Staking.sol",
  "compiler": {
    "name": "solc",
    "version": "0.8.0+commit.c7dfd78e.Emscripten.clang"
  },
  "schemaVersion": "3.2.2",
  "updatedAt": "2021-03-27T11:11:33.620Z",
  "devdoc": {
    "kind": "dev",
    "methods": {},
    "version": 1
  },
  "userdoc": {
    "kind": "user",
    "methods": {},
    "version": 1
  }
}