{
  "contractName": "Staking",
  "abi": [
    {
      "inputs": [
        {
          "internalType": "address",
          "name": "erc20",
          "type": "address"
        },
        {
          "internalType": "uint256[]",
          "name": "settings",
          "type": "uint256[]"
        }
      ],
      "stateMutability": "nonpayable",
      "type": "constructor"
    },
    {
      "anonymous": false,
      "inputs": [
        {
          "indexed": true,
          "internalType": "address",
          "name": "previousOwner",
          "type": "address"
        },
        {
          "indexed": true,
          "internalType": "address",
          "name": "newOwner",
          "type": "address"
        }
      ],
      "name": "OwnershipTransferred",
      "type": "event"
    },
    {
      "inputs": [],
      "name": "owner",
      "outputs": [
        {
          "internalType": "address",
          "name": "",
          "type": "address"
        }
      ],
      "stateMutability": "view",
      "type": "function"
    },
    {
      "inputs": [],
      "name": "renounceOwnership",
      "outputs": [],
      "stateMutability": "nonpayable",
      "type": "function"
    },
    {
      "inputs": [
        {
          "internalType": "address",
          "name": "newOwner",
          "type": "address"
        }
      ],
      "name": "transferOwnership",
      "outputs": [],
      "stateMutability": "nonpayable",
      "type": "function"
    },
    {
      "inputs": [
        {
          "internalType": "address",
          "name": "",
          "type": "address"
        }
      ],
      "name": "whitelist",
      "outputs": [
        {
          "internalType": "bool",
          "name": "",
          "type": "bool"
        }
      ],
      "stateMutability": "view",
      "type": "function"
    },
    {
      "inputs": [
        {
          "internalType": "uint256",
          "name": "amount",
          "type": "uint256"
        }
      ],
      "name": "refuel",
      "outputs": [],
      "stateMutability": "nonpayable",
      "type": "function"
    },
    {
      "inputs": [
        {
          "internalType": "uint256",
          "name": "amount",
          "type": "uint256"
        },
        {
          "internalType": "address",
          "name": "erc721",
          "type": "address"
        },
        {
          "internalType": "uint256",
          "name": "tokenID",
          "type": "uint256"
        }
      ],
      "name": "stake",
      "outputs": [],
      "stateMutability": "nonpayable",
      "type": "function"
    },
    {
      "inputs": [
        {
          "internalType": "address",
          "name": "erc721",
          "type": "address"
        },
        {
          "internalType": "uint256",
          "name": "tokenID",
          "type": "uint256"
        }
      ],
      "name": "claimReward",
      "outputs": [],
      "stateMutability": "nonpayable",
      "type": "function"
    },
    {
      "inputs": [
        {
          "internalType": "address",
          "name": "erc721",
          "type": "address"
        },
        {
          "internalType": "uint256",
          "name": "tokenID",
          "type": "uint256"
        }
      ],
      "name": "stakeAmountFor",
      "outputs": [
        {
          "internalType": "uint256",
          "name": "",
          "type": "uint256"
        }
      ],
      "stateMutability": "view",
      "type": "function"
    },
    {
      "inputs": [
        {
          "internalType": "address",
          "name": "erc721",
          "type": "address"
        },
        {
          "internalType": "uint256",
          "name": "tokenID",
          "type": "uint256"
        }
      ],
      "name": "calculateRewardFor",
      "outputs": [
        {
          "internalType": "uint256",
          "name": "",
          "type": "uint256"
        }
      ],
      "stateMutability": "view",
      "type": "function"
    },
    {
      "inputs": [
        {
          "internalType": "address",
          "name": "erc721",
          "type": "address"
        }
      ],
      "name": "listERC721",
      "outputs": [],
      "stateMutability": "nonpayable",
      "type": "function"
    },
    {
      "inputs": [
        {
          "internalType": "uint256",
          "name": "amount",
          "type": "uint256"
        },
        {
          "internalType": "uint256",
          "name": "timeDiff",
          "type": "uint256"
        }
      ],
      "name": "calculateReward",
      "outputs": [
        {
          "internalType": "uint256",
          "name": "",
          "type": "uint256"
        }
      ],
      "stateMutability": "view",
      "type": "function"
    }
  ],
  "bytecode": "0x608060405260006009553480156200001657600080fd5b5060405162002bbf38038062002bbf83398181016040528101906200003c919062000617565b60006200004e6200052760201b60201c565b9050806000806101000a81548173ffffffffffffffffffffffffffffffffffffffff021916908373ffffffffffffffffffffffffffffffffffffffff1602179055508073ffffffffffffffffffffffffffffffffffffffff16600073ffffffffffffffffffffffffffffffffffffffff167f8be0079c531659141344cd1fd0a4f28419497f9722a3daafe3b4186f6b6457e060405160405180910390a35060008160008151811062000129577f4e487b7100000000000000000000000000000000000000000000000000000000600052603260045260246000fd5b60200260200101511162000174576040517f08c379a00000000000000000000000000000000000000000000000000000000081526004016200016b906200077b565b60405180910390fd5b600081600481518110620001b1577f4e487b7100000000000000000000000000000000000000000000000000000000600052603260045260246000fd5b602002602001015111620001fc576040517f08c379a0000000000000000000000000000000000000000000000000000000008152600401620001f39062000759565b60405180910390fd5b8060028151811062000237577f4e487b7100000000000000000000000000000000000000000000000000000000600052603260045260246000fd5b6020026020010151816001815181106200027a577f4e487b7100000000000000000000000000000000000000000000000000000000600052603260045260246000fd5b602002602001015110801562000313575080600381518110620002c6577f4e487b7100000000000000000000000000000000000000000000000000000000600052603260045260246000fd5b60200260200101518160028151811062000309577f4e487b7100000000000000000000000000000000000000000000000000000000600052603260045260246000fd5b6020026020010151115b62000355576040517f08c379a00000000000000000000000000000000000000000000000000000000081526004016200034c9062000737565b60405180910390fd5b81600160006101000a81548173ffffffffffffffffffffffffffffffffffffffff021916908373ffffffffffffffffffffffffffffffffffffffff16021790555080600081518110620003d1577f4e487b7100000000000000000000000000000000000000000000000000000000600052603260045260246000fd5b6020026020010151600481905550806001815181106200041a577f4e487b7100000000000000000000000000000000000000000000000000000000600052603260045260246000fd5b60200260200101516005819055508060028151811062000463577f4e487b7100000000000000000000000000000000000000000000000000000000600052603260045260246000fd5b602002602001015160068190555080600381518110620004ac577f4e487b7100000000000000000000000000000000000000000000000000000000600052603260045260246000fd5b6020026020010151600a81905550620005196201518082600481518110620004fd577f4e487b7100000000000000000000000000000000000000000000000000000000600052603260045260246000fd5b60200260200101516200052f60201b620015fd1790919060201c565b600781905550505062000942565b600033905090565b600081836200053f919062000811565b905092915050565b60006200055e6200055884620007d1565b6200079d565b905080838252602082019050828560208602820111156200057e57600080fd5b60005b85811015620005b2578162000597888262000600565b84526020840193506020830192505060018101905062000581565b5050509392505050565b600081519050620005cd816200090e565b92915050565b600082601f830112620005e557600080fd5b8151620005f784826020860162000547565b91505092915050565b600081519050620006118162000928565b92915050565b600080604083850312156200062b57600080fd5b60006200063b85828601620005bc565b925050602083015167ffffffffffffffff8111156200065957600080fd5b6200066785828601620005d3565b9150509250929050565b60006200068060158362000800565b91507f5374616b696e673a20626164206d6178696d756d7300000000000000000000006000830152602082019050919050565b6000620006c2601b8362000800565b91507f5374616b696e673a20626164206d6178207374616b65206461797300000000006000830152602082019050919050565b60006200070460108362000800565b91507f5374616b696e673a2062616420617072000000000000000000000000000000006000830152602082019050919050565b60006020820190508181036000830152620007528162000671565b9050919050565b600060208201905081810360008301526200077481620006b3565b9050919050565b600060208201905081810360008301526200079681620006f5565b9050919050565b6000604051905081810181811067ffffffffffffffff82111715620007c757620007c6620008df565b5b8060405250919050565b600067ffffffffffffffff821115620007ef57620007ee620008df565b5b602082029050602081019050919050565b600082825260208201905092915050565b60006200081e82620008a6565b91506200082b83620008a6565b9250817fffffffffffffffffffffffffffffffffffffffffffffffffffffffffffffffff0483118215151615620008675762000866620008b0565b5b828202905092915050565b60006200087f8262000886565b9050919050565b600073ffffffffffffffffffffffffffffffffffffffff82169050919050565b6000819050919050565b7f4e487b7100000000000000000000000000000000000000000000000000000000600052601160045260246000fd5b7f4e487b7100000000000000000000000000000000000000000000000000000000600052604160045260246000fd5b620009198162000872565b81146200092557600080fd5b50565b6200093381620008a6565b81146200093f57600080fd5b50565b61226d80620009526000396000f3fe608060405234801561001057600080fd5b50600436106100a95760003560e01c806383aae0591161007157806383aae0591461013c5780638da5cb5b1461016c5780639b19251a1461018a578063b2709ace146101ba578063ee2e0ac8146101ea578063f2fde38b14610206576100a9565b806313ed0846146100ae578063174e31c4146100de57806337dd5f01146100fa5780636e9c931c14610116578063715018a614610132575b600080fd5b6100c860048036038101906100c3919061187f565b610222565b6040516100d59190611f91565b60405180910390f35b6100f860048036038101906100f39190611779565b6102b0565b005b610114600480360381019061010f9190611727565b610562565b005b610130600480360381019061012b9190611830565b6106c6565b005b61013a610b96565b005b61015660048036038101906101519190611779565b610cd0565b6040516101639190611f91565b60405180910390f35b610174610f09565b6040516101819190611d32565b60405180910390f35b6101a4600480360381019061019f9190611727565b610f32565b6040516101b19190611dd6565b60405180910390f35b6101d460048036038101906101cf9190611779565b610f52565b6040516101e19190611f91565b60405180910390f35b61020460048036038101906101ff91906117de565b61112c565b005b610220600480360381019061021b9190611727565b611454565b005b60008061023b620151808461161390919063ffffffff16565b90506102646102556007548361162990919063ffffffff16565b8261163f90919063ffffffff16565b90506102a7670de0b6b3a76400006102998661028b8560045461161390919063ffffffff16565b6115fd90919063ffffffff16565b61161390919063ffffffff16565b91505092915050565b3373ffffffffffffffffffffffffffffffffffffffff168273ffffffffffffffffffffffffffffffffffffffff16636352211e836040518263ffffffff1660e01b81526004016103009190611f91565b60206040518083038186803b15801561031857600080fd5b505afa15801561032c573d6000803e3d6000fd5b505050506040513d601f19601f820116820180604052508101906103509190611750565b73ffffffffffffffffffffffffffffffffffffffff16146103a6576040517f08c379a000000000000000000000000000000000000000000000000000000000815260040161039d90611e91565b60405180910390fd5b60006103b28383610cd0565b9050600081116103f7576040517f08c379a00000000000000000000000000000000000000000000000000000000081526004016103ee90611e11565b60405180910390fd5b600854811161043b576040517f08c379a000000000000000000000000000000000000000000000000000000000815260040161043290611e51565b60405180910390fd5b6104508160085461163f90919063ffffffff16565b50600160009054906101000a900473ffffffffffffffffffffffffffffffffffffffff1673ffffffffffffffffffffffffffffffffffffffff1663a9059cbb33836040518363ffffffff1660e01b81526004016104ae929190611dad565b602060405180830381600087803b1580156104c857600080fd5b505af11580156104dc573d6000803e3d6000fd5b505050506040513d601f19601f8201168201806040525081019061050091906117b5565b50600360008473ffffffffffffffffffffffffffffffffffffffff1673ffffffffffffffffffffffffffffffffffffffff1681526020019081526020016000206000838152602001908152602001600020600061055d9190611673565b505050565b61056a611655565b73ffffffffffffffffffffffffffffffffffffffff16610588610f09565b73ffffffffffffffffffffffffffffffffffffffff16146105de576040517f08c379a00000000000000000000000000000000000000000000000000000000081526004016105d590611ef1565b60405180910390fd5b600260008273ffffffffffffffffffffffffffffffffffffffff1673ffffffffffffffffffffffffffffffffffffffff16815260200190815260200160002060009054906101000a900460ff161561066b576040517f08c379a000000000000000000000000000000000000000000000000000000000815260040161066290611f11565b60405180910390fd5b6001600260008373ffffffffffffffffffffffffffffffffffffffff1673ffffffffffffffffffffffffffffffffffffffff16815260200190815260200160002060006101000a81548160ff02191690831515021790555050565b60055483101561070b576040517f08c379a000000000000000000000000000000000000000000000000000000000815260040161070290611f71565b60405180910390fd5b600a546107238460095461165d90919063ffffffff16565b11610763576040517f08c379a000000000000000000000000000000000000000000000000000000000815260040161075a90611e71565b60405180910390fd5b600073ffffffffffffffffffffffffffffffffffffffff168273ffffffffffffffffffffffffffffffffffffffff1614156107d3576040517f08c379a00000000000000000000000000000000000000000000000000000000081526004016107ca90611ed1565b60405180910390fd5b600260008373ffffffffffffffffffffffffffffffffffffffff1673ffffffffffffffffffffffffffffffffffffffff16815260200190815260200160002060009054906101000a900460ff1661085f576040517f08c379a000000000000000000000000000000000000000000000000000000000815260040161085690611eb1565b60405180910390fd5b82600160009054906101000a900473ffffffffffffffffffffffffffffffffffffffff1673ffffffffffffffffffffffffffffffffffffffff166370a08231336040518263ffffffff1660e01b81526004016108bb9190611d32565b60206040518083038186803b1580156108d357600080fd5b505afa1580156108e7573d6000803e3d6000fd5b505050506040513d601f19601f8201168201806040525081019061090b9190611807565b101561094c576040517f08c379a000000000000000000000000000000000000000000000000000000000815260040161094390611e31565b60405180910390fd5b82600160009054906101000a900473ffffffffffffffffffffffffffffffffffffffff1673ffffffffffffffffffffffffffffffffffffffff1663dd62ed3e33306040518363ffffffff1660e01b81526004016109aa929190611d4d565b60206040518083038186803b1580156109c257600080fd5b505afa1580156109d6573d6000803e3d6000fd5b505050506040513d601f19601f820116820180604052508101906109fa9190611807565b1015610a3b576040517f08c379a0000000000000000000000000000000000000000000000000000000008152600401610a3290611f51565b60405180910390fd5b600160009054906101000a900473ffffffffffffffffffffffffffffffffffffffff1673ffffffffffffffffffffffffffffffffffffffff166323b872dd3330866040518463ffffffff1660e01b8152600401610a9a93929190611d76565b602060405180830381600087803b158015610ab457600080fd5b505af1158015610ac8573d6000803e3d6000fd5b505050506040513d601f19601f82011682018060405250810190610aec91906117b5565b50600360008373ffffffffffffffffffffffffffffffffffffffff1673ffffffffffffffffffffffffffffffffffffffff1681526020019081526020016000206000828152602001908152602001600020604051806040016040528085815260200142815250908060018154018082558091505060019003906000526020600020906002020160009091909190915060008201518160000155602082015181600101555050505050565b610b9e611655565b73ffffffffffffffffffffffffffffffffffffffff16610bbc610f09565b73ffffffffffffffffffffffffffffffffffffffff1614610c12576040517f08c379a0000000000000000000000000000000000000000000000000000000008152600401610c0990611ef1565b60405180910390fd5b600073ffffffffffffffffffffffffffffffffffffffff1660008054906101000a900473ffffffffffffffffffffffffffffffffffffffff1673ffffffffffffffffffffffffffffffffffffffff167f8be0079c531659141344cd1fd0a4f28419497f9722a3daafe3b4186f6b6457e060405160405180910390a360008060006101000a81548173ffffffffffffffffffffffffffffffffffffffff021916908373ffffffffffffffffffffffffffffffffffffffff160217905550565b600080600360008573ffffffffffffffffffffffffffffffffffffffff1673ffffffffffffffffffffffffffffffffffffffff1681526020019081526020016000206000848152602001908152602001600020805490501415610d68576040517f08c379a0000000000000000000000000000000000000000000000000000000008152600401610d5f90611f31565b60405180910390fd5b6000600360008573ffffffffffffffffffffffffffffffffffffffff1673ffffffffffffffffffffffffffffffffffffffff1681526020019081526020016000206000848152602001908152602001600020805480602002602001604051908101604052809291908181526020016000905b82821015610e2057838290600052602060002090600202016040518060400160405290816000820154815260200160018201548152505081526020019060010190610dda565b5050505090506000805b8251811015610efd57610ee9610eda848381518110610e72577f4e487b7100000000000000000000000000000000000000000000000000000000600052603260045260246000fd5b602002602001015160000151610ed5868581518110610eba577f4e487b7100000000000000000000000000000000000000000000000000000000600052603260045260246000fd5b6020026020010151600001514261163f90919063ffffffff16565b610222565b8361165d90919063ffffffff16565b508080610ef59061211a565b915050610e2a565b50809250505092915050565b60008060009054906101000a900473ffffffffffffffffffffffffffffffffffffffff16905090565b60026020528060005260406000206000915054906101000a900460ff1681565b600080600360008573ffffffffffffffffffffffffffffffffffffffff1673ffffffffffffffffffffffffffffffffffffffff1681526020019081526020016000206000848152602001908152602001600020805490501415610fea576040517f08c379a0000000000000000000000000000000000000000000000000000000008152600401610fe190611f31565b60405180910390fd5b6000600360008573ffffffffffffffffffffffffffffffffffffffff1673ffffffffffffffffffffffffffffffffffffffff1681526020019081526020016000206000848152602001908152602001600020805480602002602001604051908101604052809291908181526020016000905b828210156110a25783829060005260206000209060020201604051806040016040529081600082015481526020016001820154815250508152602001906001019061105c565b5050505090506000805b82518110156111205761110c8382815181106110f1577f4e487b7100000000000000000000000000000000000000000000000000000000600052603260045260246000fd5b6020026020010151600001518361165d90919063ffffffff16565b5080806111189061211a565b9150506110ac565b50809250505092915050565b611134611655565b73ffffffffffffffffffffffffffffffffffffffff16611152610f09565b73ffffffffffffffffffffffffffffffffffffffff16146111a8576040517f08c379a000000000000000000000000000000000000000000000000000000000815260040161119f90611ef1565b60405180910390fd5b80600160009054906101000a900473ffffffffffffffffffffffffffffffffffffffff1673ffffffffffffffffffffffffffffffffffffffff166370a08231336040518263ffffffff1660e01b81526004016112049190611d32565b60206040518083038186803b15801561121c57600080fd5b505afa158015611230573d6000803e3d6000fd5b505050506040513d601f19601f820116820180604052508101906112549190611807565b1015611295576040517f08c379a000000000000000000000000000000000000000000000000000000000815260040161128c90611e31565b60405180910390fd5b80600160009054906101000a900473ffffffffffffffffffffffffffffffffffffffff1673ffffffffffffffffffffffffffffffffffffffff1663dd62ed3e33306040518363ffffffff1660e01b81526004016112f3929190611d4d565b60206040518083038186803b15801561130b57600080fd5b505afa15801561131f573d6000803e3d6000fd5b505050506040513d601f19601f820116820180604052508101906113439190611807565b1015611384576040517f08c379a000000000000000000000000000000000000000000000000000000000815260040161137b90611f51565b60405180910390fd5b600160009054906101000a900473ffffffffffffffffffffffffffffffffffffffff1673ffffffffffffffffffffffffffffffffffffffff166323b872dd3330846040518463ffffffff1660e01b81526004016113e393929190611d76565b602060405180830381600087803b1580156113fd57600080fd5b505af1158015611411573d6000803e3d6000fd5b505050506040513d601f19601f8201168201806040525081019061143591906117b5565b5061144b8160085461165d90919063ffffffff16565b60088190555050565b61145c611655565b73ffffffffffffffffffffffffffffffffffffffff1661147a610f09565b73ffffffffffffffffffffffffffffffffffffffff16146114d0576040517f08c379a00000000000000000000000000000000000000000000000000000000081526004016114c790611ef1565b60405180910390fd5b600073ffffffffffffffffffffffffffffffffffffffff168173ffffffffffffffffffffffffffffffffffffffff161415611540576040517f08c379a000000000000000000000000000000000000000000000000000000000815260040161153790611df1565b60405180910390fd5b8073ffffffffffffffffffffffffffffffffffffffff1660008054906101000a900473ffffffffffffffffffffffffffffffffffffffff1673ffffffffffffffffffffffffffffffffffffffff167f8be0079c531659141344cd1fd0a4f28419497f9722a3daafe3b4186f6b6457e060405160405180910390a3806000806101000a81548173ffffffffffffffffffffffffffffffffffffffff021916908373ffffffffffffffffffffffffffffffffffffffff16021790555050565b6000818361160b9190612044565b905092915050565b600081836116219190612013565b905092915050565b600081836116379190612163565b905092915050565b6000818361164d919061209e565b905092915050565b600033905090565b6000818361166b9190611fbd565b905092915050565b50805460008255600202906000526020600020908101906116949190611697565b50565b5b808211156116ba57600080820160009055600182016000905550600201611698565b5090565b6000813590506116cd816121f2565b92915050565b6000815190506116e2816121f2565b92915050565b6000815190506116f781612209565b92915050565b60008135905061170c81612220565b92915050565b60008151905061172181612220565b92915050565b60006020828403121561173957600080fd5b6000611747848285016116be565b91505092915050565b60006020828403121561176257600080fd5b6000611770848285016116d3565b91505092915050565b6000806040838503121561178c57600080fd5b600061179a858286016116be565b92505060206117ab858286016116fd565b9150509250929050565b6000602082840312156117c757600080fd5b60006117d5848285016116e8565b91505092915050565b6000602082840312156117f057600080fd5b60006117fe848285016116fd565b91505092915050565b60006020828403121561181957600080fd5b600061182784828501611712565b91505092915050565b60008060006060848603121561184557600080fd5b6000611853868287016116fd565b9350506020611864868287016116be565b9250506040611875868287016116fd565b9150509250925092565b6000806040838503121561189257600080fd5b60006118a0858286016116fd565b92505060206118b1858286016116fd565b9150509250929050565b6118c4816120d2565b82525050565b6118d3816120e4565b82525050565b60006118e6602683611fac565b91507f4f776e61626c653a206e6577206f776e657220697320746865207a65726f206160008301527f64647265737300000000000000000000000000000000000000000000000000006020830152604082019050919050565b600061194c601483611fac565b91507f5374616b696e673a207a65726f207265776172640000000000000000000000006000830152602082019050919050565b600061198c602283611fac565b91507f5374616b696e673a2073656e6465722062616c616e636520697320746f6f206c60008301527f6f770000000000000000000000000000000000000000000000000000000000006020830152604082019050919050565b60006119f2601c83611fac565b91507f5374616b696e673a20746f6f206c6f77206675656c20616d6f756e74000000006000830152602082019050919050565b6000611a32601b83611fac565b91507f5374616b696e673a207374616b6520706f6f6c2069732066756c6c00000000006000830152602082019050919050565b6000611a72602983611fac565b91507f5374616b696e673a2073656e646572206973206e6f74206f776e6572206f662060008301527f74686520746f6b656e00000000000000000000000000000000000000000000006020830152604082019050919050565b6000611ad8602b83611fac565b91507f5374616b696e673a2065726337323120636f6e7472616374206973206e6f742060008301527f77686974656c69737465640000000000000000000000000000000000000000006020830152604082019050919050565b6000611b3e602883611fac565b91507f5374616b696e673a2065726337323120636f6e7472616374206164647265737360008301527f206973206e756c6c0000000000000000000000000000000000000000000000006020830152604082019050919050565b6000611ba4602083611fac565b91507f4f776e61626c653a2063616c6c6572206973206e6f7420746865206f776e65726000830152602082019050919050565b6000611be4602483611fac565b91507f5374616b696e673a20737563682045524337323120616c72656164792065786960008301527f73746564000000000000000000000000000000000000000000000000000000006020830152604082019050919050565b6000611c4a601e83611fac565b91507f5374616b696e673a207374616b696e6720706f6f6c20697320656d70747900006000830152602082019050919050565b6000611c8a602483611fac565b91507f5374616b696e673a2073656e64657220616c6c6f77616e636520697320746f6f60008301527f206c6f77000000000000000000000000000000000000000000000000000000006020830152604082019050919050565b6000611cf0601983611fac565b91507f5374616b696e673a20616d6f756e7420746f6f20736d616c6c000000000000006000830152602082019050919050565b611d2c81612110565b82525050565b6000602082019050611d4760008301846118bb565b92915050565b6000604082019050611d6260008301856118bb565b611d6f60208301846118bb565b9392505050565b6000606082019050611d8b60008301866118bb565b611d9860208301856118bb565b611da56040830184611d23565b949350505050565b6000604082019050611dc260008301856118bb565b611dcf6020830184611d23565b9392505050565b6000602082019050611deb60008301846118ca565b92915050565b60006020820190508181036000830152611e0a816118d9565b9050919050565b60006020820190508181036000830152611e2a8161193f565b9050919050565b60006020820190508181036000830152611e4a8161197f565b9050919050565b60006020820190508181036000830152611e6a816119e5565b9050919050565b60006020820190508181036000830152611e8a81611a25565b9050919050565b60006020820190508181036000830152611eaa81611a65565b9050919050565b60006020820190508181036000830152611eca81611acb565b9050919050565b60006020820190508181036000830152611eea81611b31565b9050919050565b60006020820190508181036000830152611f0a81611b97565b9050919050565b60006020820190508181036000830152611f2a81611bd7565b9050919050565b60006020820190508181036000830152611f4a81611c3d565b9050919050565b60006020820190508181036000830152611f6a81611c7d565b9050919050565b60006020820190508181036000830152611f8a81611ce3565b9050919050565b6000602082019050611fa66000830184611d23565b92915050565b600082825260208201905092915050565b6000611fc882612110565b9150611fd383612110565b9250827fffffffffffffffffffffffffffffffffffffffffffffffffffffffffffffffff0382111561200857612007612194565b5b828201905092915050565b600061201e82612110565b915061202983612110565b925082612039576120386121c3565b5b828204905092915050565b600061204f82612110565b915061205a83612110565b9250817fffffffffffffffffffffffffffffffffffffffffffffffffffffffffffffffff048311821515161561209357612092612194565b5b828202905092915050565b60006120a982612110565b91506120b483612110565b9250828210156120c7576120c6612194565b5b828203905092915050565b60006120dd826120f0565b9050919050565b60008115159050919050565b600073ffffffffffffffffffffffffffffffffffffffff82169050919050565b6000819050919050565b600061212582612110565b91507fffffffffffffffffffffffffffffffffffffffffffffffffffffffffffffffff82141561215857612157612194565b5b600182019050919050565b600061216e82612110565b915061217983612110565b925082612189576121886121c3565b5b828206905092915050565b7f4e487b7100000000000000000000000000000000000000000000000000000000600052601160045260246000fd5b7f4e487b7100000000000000000000000000000000000000000000000000000000600052601260045260246000fd5b6121fb816120d2565b811461220657600080fd5b50565b612212816120e4565b811461221d57600080fd5b50565b61222981612110565b811461223457600080fd5b5056fea26469706673582212205e68ecb8bb5a8ed40a554e49c8ababe9cd5cfefc8e10ca4c1b1d3d5fd07b00dc64736f6c63430008000033",
  "immutableReferences": {},
  "source": "//SPDX-License-Identifier: MIT\npragma solidity ^0.8.0;\n\nimport \"@openzeppelin/contracts/token/ERC20/IERC20.sol\";\nimport \"@openzeppelin/contracts/token/ERC721/IERC721.sol\";\nimport \"@openzeppelin/contracts/access/Ownable.sol\";\nimport \"@openzeppelin/contracts/utils/math/SafeMath.sol\";\n\ncontract Staking is Ownable {\n    IERC20 token;\n    using SafeMath for uint256;\n\n    mapping(address => bool) public whitelist;\n    mapping(address => mapping(uint256 => Stake[])) tokenIdStakeByAsset;\n\n    uint256 _apr;\n    uint256 _minStake;\n    uint256 _maxStake;\n    uint256 _maxStakeDays;\n    uint256 _fuel;\n\n\n    uint256 _stakingAmount = 0;\n    uint256 _maxStakingAmount;\n\n\n    struct Stake {\n        uint256 amount;\n        uint256 startAt;\n    }\n\n    constructor(address erc20, uint256[] memory settings) {\n        require(settings[0] > 0, \"Staking: bad apr\");\n        require(settings[4] > 0, \"Staking: bad max stake days\");\n        require(settings[1] < settings[2] && settings[2] > settings[3], \"Staking: bad maximums\");\n\n        token = IERC20(erc20);\n        _apr = settings[0];\n        _minStake = settings[1];\n        _maxStake = settings[2];\n        _maxStakingAmount = settings[3];\n        _maxStakeDays = settings[4].mul(1 days);\n    }\n\n    function refuel(uint256 amount) external onlyOwner {\n        require(token.balanceOf(msg.sender) >= amount, \"Staking: sender balance is too low\");\n        require(token.allowance(msg.sender, address(this)) >= amount, \"Staking: sender allowance is too low\");\n\n        token.transferFrom(msg.sender, address(this), amount);\n        _fuel = _fuel.add(amount);\n    }\n\n\n    function stake(uint256 amount, address erc721, uint256 tokenID) external {\n        require(amount >= _minStake, \"Staking: amount too small\");\n        require(_stakingAmount.add(amount) > _maxStakingAmount, \"Staking: stake pool is full\");\n        require(erc721 != address(0), \"Staking: erc721 contract address is null\");\n        require(whitelist[erc721], \"Staking: erc721 contract is not whitelisted\");\n        require(token.balanceOf(msg.sender) >= amount, \"Staking: sender balance is too low\");\n        require(token.allowance(msg.sender, address(this)) >= amount, \"Staking: sender allowance is too low\");\n\n        token.transferFrom(msg.sender, address(this), amount);\n        tokenIdStakeByAsset[erc721][tokenID].push(Stake(amount, block.timestamp));\n    }\n\n    function claimReward(address erc721, uint256 tokenID) external {\n        require(IERC721(erc721).ownerOf(tokenID) == msg.sender, \"Staking: sender is not owner of the token\");\n        uint256 reward = calculateRewardFor(erc721, tokenID);\n\n        require(reward > 0, \"Staking: zero reward\");\n        require(reward > _fuel, \"Staking: too low fuel amount\");\n        _fuel.sub(reward);\n\n        token.transfer(msg.sender, reward);\n\n        delete tokenIdStakeByAsset[erc721][tokenID];\n    }\n\n    function stakeAmountFor(address erc721, uint256 tokenID) view public returns (uint256){\n        require(tokenIdStakeByAsset[erc721][tokenID].length != 0, \"Staking: staking pool is empty\");\n\n        Stake[] memory stakes = tokenIdStakeByAsset[erc721][tokenID];\n        uint256 amount = 0;\n        for (uint i = 0; i < stakes.length; i++) {\n            amount.add(stakes[i].amount);\n        }\n\n        return amount;\n    }\n\n    function calculateRewardFor(address erc721, uint256 tokenID) view public returns (uint256){\n        require(tokenIdStakeByAsset[erc721][tokenID].length != 0, \"Staking: staking pool is empty\");\n\n        Stake[] memory stakes = tokenIdStakeByAsset[erc721][tokenID];\n        uint256 reward = 0;\n        for (uint i = 0; i < stakes.length; i++) {\n            reward.add(calculateReward(stakes[i].amount, block.timestamp.sub(stakes[i].amount)));\n        }\n\n        return reward;\n    }\n\n    function listERC721(address erc721) onlyOwner public {\n        require(!whitelist[erc721], \"Staking: such ERC721 already existed\");\n        whitelist[erc721] = true;\n    }\n\n    function calculateReward(uint256 amount, uint256 timeDiff) view public returns (uint256){\n        uint256 timeDiffDays = timeDiff.div(1 days);\n        timeDiffDays = timeDiffDays.sub(timeDiffDays.mod(_maxStakeDays));\n\n        return _apr.div(timeDiffDays).mul(amount).div(1 ether);\n    }\n}\n",
  "sourcePath": "/Users/macbook/go/src/github.com/FixIT-hackathon/erc721-stake/contracts/Staking.sol",
  "compiler": {
    "name": "solc",
    "version": "0.8.0+commit.c7dfd78e.Emscripten.clang"
  },
  "schemaVersion": "3.2.2",
  "updatedAt": "2021-03-27T12:42:15.790Z",
  "devdoc": {
    "kind": "dev",
    "methods": {
      "owner()": {
        "details": "Returns the address of the current owner."
      },
      "renounceOwnership()": {
        "details": "Leaves the contract without owner. It will not be possible to call `onlyOwner` functions anymore. Can only be called by the current owner. NOTE: Renouncing ownership will leave the contract without an owner, thereby removing any functionality that is only available to the owner."
      },
      "transferOwnership(address)": {
        "details": "Transfers ownership of the contract to a new account (`newOwner`). Can only be called by the current owner."
      }
    },
    "version": 1
  },
  "userdoc": {
    "kind": "user",
    "methods": {},
    "version": 1
  }
}