{
  "contractName": "Staking",
  "abi": [
    {
      "inputs": [
        {
          "internalType": "address",
          "name": "erc20",
          "type": "address"
        },
        {
          "internalType": "uint256[]",
          "name": "settings",
          "type": "uint256[]"
        }
      ],
      "stateMutability": "nonpayable",
      "type": "constructor"
    },
    {
      "anonymous": false,
      "inputs": [
        {
          "indexed": true,
          "internalType": "address",
          "name": "previousOwner",
          "type": "address"
        },
        {
          "indexed": true,
          "internalType": "address",
          "name": "newOwner",
          "type": "address"
        }
      ],
      "name": "OwnershipTransferred",
      "type": "event"
    },
    {
      "inputs": [],
      "name": "owner",
      "outputs": [
        {
          "internalType": "address",
          "name": "",
          "type": "address"
        }
      ],
      "stateMutability": "view",
      "type": "function"
    },
    {
      "inputs": [],
      "name": "renounceOwnership",
      "outputs": [],
      "stateMutability": "nonpayable",
      "type": "function"
    },
    {
      "inputs": [
        {
          "internalType": "address",
          "name": "newOwner",
          "type": "address"
        }
      ],
      "name": "transferOwnership",
      "outputs": [],
      "stateMutability": "nonpayable",
      "type": "function"
    },
    {
      "inputs": [
        {
          "internalType": "address",
          "name": "",
          "type": "address"
        }
      ],
      "name": "whitelist",
      "outputs": [
        {
          "internalType": "bool",
          "name": "",
          "type": "bool"
        }
      ],
      "stateMutability": "view",
      "type": "function"
    },
    {
      "inputs": [
        {
          "internalType": "uint256",
          "name": "amount",
          "type": "uint256"
        }
      ],
      "name": "refuel",
      "outputs": [],
      "stateMutability": "nonpayable",
      "type": "function"
    },
    {
      "inputs": [
        {
          "internalType": "uint256",
          "name": "amount",
          "type": "uint256"
        },
        {
          "internalType": "address",
          "name": "erc721",
          "type": "address"
        },
        {
          "internalType": "uint256",
          "name": "tokenID",
          "type": "uint256"
        }
      ],
      "name": "stake",
      "outputs": [],
      "stateMutability": "nonpayable",
      "type": "function"
    },
    {
      "inputs": [
        {
          "internalType": "address",
          "name": "erc721",
          "type": "address"
        },
        {
          "internalType": "uint256",
          "name": "tokenID",
          "type": "uint256"
        }
      ],
      "name": "claimReward",
      "outputs": [],
      "stateMutability": "nonpayable",
      "type": "function"
    },
    {
      "inputs": [
        {
          "internalType": "address",
          "name": "erc721",
          "type": "address"
        },
        {
          "internalType": "uint256",
          "name": "tokenID",
          "type": "uint256"
        }
      ],
      "name": "stakeAmountFor",
      "outputs": [
        {
          "internalType": "uint256",
          "name": "",
          "type": "uint256"
        }
      ],
      "stateMutability": "view",
      "type": "function"
    },
    {
      "inputs": [
        {
          "internalType": "address",
          "name": "erc721",
          "type": "address"
        },
        {
          "internalType": "uint256",
          "name": "tokenID",
          "type": "uint256"
        }
      ],
      "name": "calculateRewardFor",
      "outputs": [
        {
          "internalType": "uint256",
          "name": "",
          "type": "uint256"
        }
      ],
      "stateMutability": "view",
      "type": "function"
    },
    {
      "inputs": [
        {
          "internalType": "uint256",
          "name": "amount",
          "type": "uint256"
        },
        {
          "internalType": "uint256",
          "name": "timeDiff",
          "type": "uint256"
        }
      ],
      "name": "calculateReward",
      "outputs": [
        {
          "internalType": "uint256",
          "name": "",
          "type": "uint256"
        }
      ],
      "stateMutability": "view",
      "type": "function"
    }
  ],
  "bytecode": "0x608060405260006009553480156200001657600080fd5b50604051620029ae380380620029ae83398181016040528101906200003c919062000617565b60006200004e6200052760201b60201c565b9050806000806101000a81548173ffffffffffffffffffffffffffffffffffffffff021916908373ffffffffffffffffffffffffffffffffffffffff1602179055508073ffffffffffffffffffffffffffffffffffffffff16600073ffffffffffffffffffffffffffffffffffffffff167f8be0079c531659141344cd1fd0a4f28419497f9722a3daafe3b4186f6b6457e060405160405180910390a35060008160008151811062000129577f4e487b7100000000000000000000000000000000000000000000000000000000600052603260045260246000fd5b60200260200101511162000174576040517f08c379a00000000000000000000000000000000000000000000000000000000081526004016200016b906200077b565b60405180910390fd5b600081600481518110620001b1577f4e487b7100000000000000000000000000000000000000000000000000000000600052603260045260246000fd5b602002602001015111620001fc576040517f08c379a0000000000000000000000000000000000000000000000000000000008152600401620001f39062000759565b60405180910390fd5b8060028151811062000237577f4e487b7100000000000000000000000000000000000000000000000000000000600052603260045260246000fd5b6020026020010151816001815181106200027a577f4e487b7100000000000000000000000000000000000000000000000000000000600052603260045260246000fd5b602002602001015110801562000313575080600381518110620002c6577f4e487b7100000000000000000000000000000000000000000000000000000000600052603260045260246000fd5b60200260200101518160028151811062000309577f4e487b7100000000000000000000000000000000000000000000000000000000600052603260045260246000fd5b6020026020010151115b62000355576040517f08c379a00000000000000000000000000000000000000000000000000000000081526004016200034c9062000737565b60405180910390fd5b81600160006101000a81548173ffffffffffffffffffffffffffffffffffffffff021916908373ffffffffffffffffffffffffffffffffffffffff16021790555080600081518110620003d1577f4e487b7100000000000000000000000000000000000000000000000000000000600052603260045260246000fd5b6020026020010151600481905550806001815181106200041a577f4e487b7100000000000000000000000000000000000000000000000000000000600052603260045260246000fd5b60200260200101516005819055508060028151811062000463577f4e487b7100000000000000000000000000000000000000000000000000000000600052603260045260246000fd5b602002602001015160068190555080600381518110620004ac577f4e487b7100000000000000000000000000000000000000000000000000000000600052603260045260246000fd5b6020026020010151600a81905550620005196201518082600481518110620004fd577f4e487b7100000000000000000000000000000000000000000000000000000000600052603260045260246000fd5b60200260200101516200052f60201b620014721790919060201c565b600781905550505062000942565b600033905090565b600081836200053f919062000811565b905092915050565b60006200055e6200055884620007d1565b6200079d565b905080838252602082019050828560208602820111156200057e57600080fd5b60005b85811015620005b2578162000597888262000600565b84526020840193506020830192505060018101905062000581565b5050509392505050565b600081519050620005cd816200090e565b92915050565b600082601f830112620005e557600080fd5b8151620005f784826020860162000547565b91505092915050565b600081519050620006118162000928565b92915050565b600080604083850312156200062b57600080fd5b60006200063b85828601620005bc565b925050602083015167ffffffffffffffff8111156200065957600080fd5b6200066785828601620005d3565b9150509250929050565b60006200068060158362000800565b91507f5374616b696e673a20626164206d6178696d756d7300000000000000000000006000830152602082019050919050565b6000620006c2601b8362000800565b91507f5374616b696e673a20626164206d6178207374616b65206461797300000000006000830152602082019050919050565b60006200070460108362000800565b91507f5374616b696e673a2062616420617072000000000000000000000000000000006000830152602082019050919050565b60006020820190508181036000830152620007528162000671565b9050919050565b600060208201905081810360008301526200077481620006b3565b9050919050565b600060208201905081810360008301526200079681620006f5565b9050919050565b6000604051905081810181811067ffffffffffffffff82111715620007c757620007c6620008df565b5b8060405250919050565b600067ffffffffffffffff821115620007ef57620007ee620008df565b5b602082029050602081019050919050565b600082825260208201905092915050565b60006200081e82620008a6565b91506200082b83620008a6565b9250817fffffffffffffffffffffffffffffffffffffffffffffffffffffffffffffffff0483118215151615620008675762000866620008b0565b5b828202905092915050565b60006200087f8262000886565b9050919050565b600073ffffffffffffffffffffffffffffffffffffffff82169050919050565b6000819050919050565b7f4e487b7100000000000000000000000000000000000000000000000000000000600052601160045260246000fd5b7f4e487b7100000000000000000000000000000000000000000000000000000000600052604160045260246000fd5b620009198162000872565b81146200092557600080fd5b50565b6200093381620008a6565b81146200093f57600080fd5b50565b61205c80620009526000396000f3fe608060405234801561001057600080fd5b506004361061009e5760003560e01c80638da5cb5b116100665780638da5cb5b146101455780639b19251a14610163578063b2709ace14610193578063ee2e0ac8146101c3578063f2fde38b146101df5761009e565b806313ed0846146100a3578063174e31c4146100d35780636e9c931c146100ef578063715018a61461010b57806383aae05914610115575b600080fd5b6100bd60048036038101906100b891906116f4565b6101fb565b6040516100ca9190611d80565b60405180910390f35b6100ed60048036038101906100e891906115ee565b610289565b005b610109600480360381019061010491906116a5565b61053b565b005b610113610a0b565b005b61012f600480360381019061012a91906115ee565b610b45565b60405161013c9190611d80565b60405180910390f35b61014d610d7e565b60405161015a9190611b41565b60405180910390f35b61017d6004803603810190610178919061159c565b610da7565b60405161018a9190611be5565b60405180910390f35b6101ad60048036038101906101a891906115ee565b610dc7565b6040516101ba9190611d80565b60405180910390f35b6101dd60048036038101906101d89190611653565b610fa1565b005b6101f960048036038101906101f4919061159c565b6112c9565b005b600080610214620151808461148890919063ffffffff16565b905061023d61022e6007548361149e90919063ffffffff16565b826114b490919063ffffffff16565b9050610280670de0b6b3a7640000610272866102648560045461148890919063ffffffff16565b61147290919063ffffffff16565b61148890919063ffffffff16565b91505092915050565b3373ffffffffffffffffffffffffffffffffffffffff168273ffffffffffffffffffffffffffffffffffffffff16636352211e836040518263ffffffff1660e01b81526004016102d99190611d80565b60206040518083038186803b1580156102f157600080fd5b505afa158015610305573d6000803e3d6000fd5b505050506040513d601f19601f8201168201806040525081019061032991906115c5565b73ffffffffffffffffffffffffffffffffffffffff161461037f576040517f08c379a000000000000000000000000000000000000000000000000000000000815260040161037690611ca0565b60405180910390fd5b600061038b8383610b45565b9050600081116103d0576040517f08c379a00000000000000000000000000000000000000000000000000000000081526004016103c790611c20565b60405180910390fd5b6008548111610414576040517f08c379a000000000000000000000000000000000000000000000000000000000815260040161040b90611c60565b60405180910390fd5b610429816008546114b490919063ffffffff16565b50600160009054906101000a900473ffffffffffffffffffffffffffffffffffffffff1673ffffffffffffffffffffffffffffffffffffffff1663a9059cbb33836040518363ffffffff1660e01b8152600401610487929190611bbc565b602060405180830381600087803b1580156104a157600080fd5b505af11580156104b5573d6000803e3d6000fd5b505050506040513d601f19601f820116820180604052508101906104d9919061162a565b50600360008473ffffffffffffffffffffffffffffffffffffffff1673ffffffffffffffffffffffffffffffffffffffff1681526020019081526020016000206000838152602001908152602001600020600061053691906114e8565b505050565b600554831015610580576040517f08c379a000000000000000000000000000000000000000000000000000000000815260040161057790611d60565b60405180910390fd5b600a54610598846009546114ca90919063ffffffff16565b116105d8576040517f08c379a00000000000000000000000000000000000000000000000000000000081526004016105cf90611c80565b60405180910390fd5b600073ffffffffffffffffffffffffffffffffffffffff168273ffffffffffffffffffffffffffffffffffffffff161415610648576040517f08c379a000000000000000000000000000000000000000000000000000000000815260040161063f90611ce0565b60405180910390fd5b600260008373ffffffffffffffffffffffffffffffffffffffff1673ffffffffffffffffffffffffffffffffffffffff16815260200190815260200160002060009054906101000a900460ff166106d4576040517f08c379a00000000000000000000000000000000000000000000000000000000081526004016106cb90611cc0565b60405180910390fd5b82600160009054906101000a900473ffffffffffffffffffffffffffffffffffffffff1673ffffffffffffffffffffffffffffffffffffffff166370a08231336040518263ffffffff1660e01b81526004016107309190611b41565b60206040518083038186803b15801561074857600080fd5b505afa15801561075c573d6000803e3d6000fd5b505050506040513d601f19601f82011682018060405250810190610780919061167c565b10156107c1576040517f08c379a00000000000000000000000000000000000000000000000000000000081526004016107b890611c40565b60405180910390fd5b82600160009054906101000a900473ffffffffffffffffffffffffffffffffffffffff1673ffffffffffffffffffffffffffffffffffffffff1663dd62ed3e33306040518363ffffffff1660e01b815260040161081f929190611b5c565b60206040518083038186803b15801561083757600080fd5b505afa15801561084b573d6000803e3d6000fd5b505050506040513d601f19601f8201168201806040525081019061086f919061167c565b10156108b0576040517f08c379a00000000000000000000000000000000000000000000000000000000081526004016108a790611d40565b60405180910390fd5b600160009054906101000a900473ffffffffffffffffffffffffffffffffffffffff1673ffffffffffffffffffffffffffffffffffffffff166323b872dd3330866040518463ffffffff1660e01b815260040161090f93929190611b85565b602060405180830381600087803b15801561092957600080fd5b505af115801561093d573d6000803e3d6000fd5b505050506040513d601f19601f82011682018060405250810190610961919061162a565b50600360008373ffffffffffffffffffffffffffffffffffffffff1673ffffffffffffffffffffffffffffffffffffffff1681526020019081526020016000206000828152602001908152602001600020604051806040016040528085815260200142815250908060018154018082558091505060019003906000526020600020906002020160009091909190915060008201518160000155602082015181600101555050505050565b610a136114e0565b73ffffffffffffffffffffffffffffffffffffffff16610a31610d7e565b73ffffffffffffffffffffffffffffffffffffffff1614610a87576040517f08c379a0000000000000000000000000000000000000000000000000000000008152600401610a7e90611d00565b60405180910390fd5b600073ffffffffffffffffffffffffffffffffffffffff1660008054906101000a900473ffffffffffffffffffffffffffffffffffffffff1673ffffffffffffffffffffffffffffffffffffffff167f8be0079c531659141344cd1fd0a4f28419497f9722a3daafe3b4186f6b6457e060405160405180910390a360008060006101000a81548173ffffffffffffffffffffffffffffffffffffffff021916908373ffffffffffffffffffffffffffffffffffffffff160217905550565b600080600360008573ffffffffffffffffffffffffffffffffffffffff1673ffffffffffffffffffffffffffffffffffffffff1681526020019081526020016000206000848152602001908152602001600020805490501415610bdd576040517f08c379a0000000000000000000000000000000000000000000000000000000008152600401610bd490611d20565b60405180910390fd5b6000600360008573ffffffffffffffffffffffffffffffffffffffff1673ffffffffffffffffffffffffffffffffffffffff1681526020019081526020016000206000848152602001908152602001600020805480602002602001604051908101604052809291908181526020016000905b82821015610c9557838290600052602060002090600202016040518060400160405290816000820154815260200160018201548152505081526020019060010190610c4f565b5050505090506000805b8251811015610d7257610d5e610d4f848381518110610ce7577f4e487b7100000000000000000000000000000000000000000000000000000000600052603260045260246000fd5b602002602001015160000151610d4a868581518110610d2f577f4e487b7100000000000000000000000000000000000000000000000000000000600052603260045260246000fd5b602002602001015160000151426114b490919063ffffffff16565b6101fb565b836114ca90919063ffffffff16565b508080610d6a90611f09565b915050610c9f565b50809250505092915050565b60008060009054906101000a900473ffffffffffffffffffffffffffffffffffffffff16905090565b60026020528060005260406000206000915054906101000a900460ff1681565b600080600360008573ffffffffffffffffffffffffffffffffffffffff1673ffffffffffffffffffffffffffffffffffffffff1681526020019081526020016000206000848152602001908152602001600020805490501415610e5f576040517f08c379a0000000000000000000000000000000000000000000000000000000008152600401610e5690611d20565b60405180910390fd5b6000600360008573ffffffffffffffffffffffffffffffffffffffff1673ffffffffffffffffffffffffffffffffffffffff1681526020019081526020016000206000848152602001908152602001600020805480602002602001604051908101604052809291908181526020016000905b82821015610f1757838290600052602060002090600202016040518060400160405290816000820154815260200160018201548152505081526020019060010190610ed1565b5050505090506000805b8251811015610f9557610f81838281518110610f66577f4e487b7100000000000000000000000000000000000000000000000000000000600052603260045260246000fd5b602002602001015160000151836114ca90919063ffffffff16565b508080610f8d90611f09565b915050610f21565b50809250505092915050565b610fa96114e0565b73ffffffffffffffffffffffffffffffffffffffff16610fc7610d7e565b73ffffffffffffffffffffffffffffffffffffffff161461101d576040517f08c379a000000000000000000000000000000000000000000000000000000000815260040161101490611d00565b60405180910390fd5b80600160009054906101000a900473ffffffffffffffffffffffffffffffffffffffff1673ffffffffffffffffffffffffffffffffffffffff166370a08231336040518263ffffffff1660e01b81526004016110799190611b41565b60206040518083038186803b15801561109157600080fd5b505afa1580156110a5573d6000803e3d6000fd5b505050506040513d601f19601f820116820180604052508101906110c9919061167c565b101561110a576040517f08c379a000000000000000000000000000000000000000000000000000000000815260040161110190611c40565b60405180910390fd5b80600160009054906101000a900473ffffffffffffffffffffffffffffffffffffffff1673ffffffffffffffffffffffffffffffffffffffff1663dd62ed3e33306040518363ffffffff1660e01b8152600401611168929190611b5c565b60206040518083038186803b15801561118057600080fd5b505afa158015611194573d6000803e3d6000fd5b505050506040513d601f19601f820116820180604052508101906111b8919061167c565b10156111f9576040517f08c379a00000000000000000000000000000000000000000000000000000000081526004016111f090611d40565b60405180910390fd5b600160009054906101000a900473ffffffffffffffffffffffffffffffffffffffff1673ffffffffffffffffffffffffffffffffffffffff166323b872dd3330846040518463ffffffff1660e01b815260040161125893929190611b85565b602060405180830381600087803b15801561127257600080fd5b505af1158015611286573d6000803e3d6000fd5b505050506040513d601f19601f820116820180604052508101906112aa919061162a565b506112c0816008546114ca90919063ffffffff16565b60088190555050565b6112d16114e0565b73ffffffffffffffffffffffffffffffffffffffff166112ef610d7e565b73ffffffffffffffffffffffffffffffffffffffff1614611345576040517f08c379a000000000000000000000000000000000000000000000000000000000815260040161133c90611d00565b60405180910390fd5b600073ffffffffffffffffffffffffffffffffffffffff168173ffffffffffffffffffffffffffffffffffffffff1614156113b5576040517f08c379a00000000000000000000000000000000000000000000000000000000081526004016113ac90611c00565b60405180910390fd5b8073ffffffffffffffffffffffffffffffffffffffff1660008054906101000a900473ffffffffffffffffffffffffffffffffffffffff1673ffffffffffffffffffffffffffffffffffffffff167f8be0079c531659141344cd1fd0a4f28419497f9722a3daafe3b4186f6b6457e060405160405180910390a3806000806101000a81548173ffffffffffffffffffffffffffffffffffffffff021916908373ffffffffffffffffffffffffffffffffffffffff16021790555050565b600081836114809190611e33565b905092915050565b600081836114969190611e02565b905092915050565b600081836114ac9190611f52565b905092915050565b600081836114c29190611e8d565b905092915050565b600081836114d89190611dac565b905092915050565b600033905090565b5080546000825560020290600052602060002090810190611509919061150c565b50565b5b8082111561152f5760008082016000905560018201600090555060020161150d565b5090565b60008135905061154281611fe1565b92915050565b60008151905061155781611fe1565b92915050565b60008151905061156c81611ff8565b92915050565b6000813590506115818161200f565b92915050565b6000815190506115968161200f565b92915050565b6000602082840312156115ae57600080fd5b60006115bc84828501611533565b91505092915050565b6000602082840312156115d757600080fd5b60006115e584828501611548565b91505092915050565b6000806040838503121561160157600080fd5b600061160f85828601611533565b925050602061162085828601611572565b9150509250929050565b60006020828403121561163c57600080fd5b600061164a8482850161155d565b91505092915050565b60006020828403121561166557600080fd5b600061167384828501611572565b91505092915050565b60006020828403121561168e57600080fd5b600061169c84828501611587565b91505092915050565b6000806000606084860312156116ba57600080fd5b60006116c886828701611572565b93505060206116d986828701611533565b92505060406116ea86828701611572565b9150509250925092565b6000806040838503121561170757600080fd5b600061171585828601611572565b925050602061172685828601611572565b9150509250929050565b61173981611ec1565b82525050565b61174881611ed3565b82525050565b600061175b602683611d9b565b91507f4f776e61626c653a206e6577206f776e657220697320746865207a65726f206160008301527f64647265737300000000000000000000000000000000000000000000000000006020830152604082019050919050565b60006117c1601483611d9b565b91507f5374616b696e673a207a65726f207265776172640000000000000000000000006000830152602082019050919050565b6000611801602283611d9b565b91507f5374616b696e673a2073656e6465722062616c616e636520697320746f6f206c60008301527f6f770000000000000000000000000000000000000000000000000000000000006020830152604082019050919050565b6000611867601c83611d9b565b91507f5374616b696e673a20746f6f206c6f77206675656c20616d6f756e74000000006000830152602082019050919050565b60006118a7601b83611d9b565b91507f5374616b696e673a207374616b6520706f6f6c2069732066756c6c00000000006000830152602082019050919050565b60006118e7602983611d9b565b91507f5374616b696e673a2073656e646572206973206e6f74206f776e6572206f662060008301527f74686520746f6b656e00000000000000000000000000000000000000000000006020830152604082019050919050565b600061194d602b83611d9b565b91507f5374616b696e673a2065726337323120636f6e7472616374206973206e6f742060008301527f77686974656c69737465640000000000000000000000000000000000000000006020830152604082019050919050565b60006119b3602883611d9b565b91507f5374616b696e673a2065726337323120636f6e7472616374206164647265737360008301527f206973206e756c6c0000000000000000000000000000000000000000000000006020830152604082019050919050565b6000611a19602083611d9b565b91507f4f776e61626c653a2063616c6c6572206973206e6f7420746865206f776e65726000830152602082019050919050565b6000611a59601e83611d9b565b91507f5374616b696e673a207374616b696e6720706f6f6c20697320656d70747900006000830152602082019050919050565b6000611a99602483611d9b565b91507f5374616b696e673a2073656e64657220616c6c6f77616e636520697320746f6f60008301527f206c6f77000000000000000000000000000000000000000000000000000000006020830152604082019050919050565b6000611aff601983611d9b565b91507f5374616b696e673a20616d6f756e7420746f6f20736d616c6c000000000000006000830152602082019050919050565b611b3b81611eff565b82525050565b6000602082019050611b566000830184611730565b92915050565b6000604082019050611b716000830185611730565b611b7e6020830184611730565b9392505050565b6000606082019050611b9a6000830186611730565b611ba76020830185611730565b611bb46040830184611b32565b949350505050565b6000604082019050611bd16000830185611730565b611bde6020830184611b32565b9392505050565b6000602082019050611bfa600083018461173f565b92915050565b60006020820190508181036000830152611c198161174e565b9050919050565b60006020820190508181036000830152611c39816117b4565b9050919050565b60006020820190508181036000830152611c59816117f4565b9050919050565b60006020820190508181036000830152611c798161185a565b9050919050565b60006020820190508181036000830152611c998161189a565b9050919050565b60006020820190508181036000830152611cb9816118da565b9050919050565b60006020820190508181036000830152611cd981611940565b9050919050565b60006020820190508181036000830152611cf9816119a6565b9050919050565b60006020820190508181036000830152611d1981611a0c565b9050919050565b60006020820190508181036000830152611d3981611a4c565b9050919050565b60006020820190508181036000830152611d5981611a8c565b9050919050565b60006020820190508181036000830152611d7981611af2565b9050919050565b6000602082019050611d956000830184611b32565b92915050565b600082825260208201905092915050565b6000611db782611eff565b9150611dc283611eff565b9250827fffffffffffffffffffffffffffffffffffffffffffffffffffffffffffffffff03821115611df757611df6611f83565b5b828201905092915050565b6000611e0d82611eff565b9150611e1883611eff565b925082611e2857611e27611fb2565b5b828204905092915050565b6000611e3e82611eff565b9150611e4983611eff565b9250817fffffffffffffffffffffffffffffffffffffffffffffffffffffffffffffffff0483118215151615611e8257611e81611f83565b5b828202905092915050565b6000611e9882611eff565b9150611ea383611eff565b925082821015611eb657611eb5611f83565b5b828203905092915050565b6000611ecc82611edf565b9050919050565b60008115159050919050565b600073ffffffffffffffffffffffffffffffffffffffff82169050919050565b6000819050919050565b6000611f1482611eff565b91507fffffffffffffffffffffffffffffffffffffffffffffffffffffffffffffffff821415611f4757611f46611f83565b5b600182019050919050565b6000611f5d82611eff565b9150611f6883611eff565b925082611f7857611f77611fb2565b5b828206905092915050565b7f4e487b7100000000000000000000000000000000000000000000000000000000600052601160045260246000fd5b7f4e487b7100000000000000000000000000000000000000000000000000000000600052601260045260246000fd5b611fea81611ec1565b8114611ff557600080fd5b50565b61200181611ed3565b811461200c57600080fd5b50565b61201881611eff565b811461202357600080fd5b5056fea2646970667358221220fa6f6a939e51287f70afbb62a85d234706bdfc628d0555c3a3258c215e5bc04764736f6c63430008000033",
  "immutableReferences": {},
  "source": "//SPDX-License-Identifier: MIT\npragma solidity ^0.8.0;\n\nimport \"@openzeppelin/contracts/token/ERC20/IERC20.sol\";\nimport \"@openzeppelin/contracts/token/ERC721/IERC721.sol\";\nimport \"@openzeppelin/contracts/access/Ownable.sol\";\nimport \"@openzeppelin/contracts/utils/math/SafeMath.sol\";\n\ncontract Staking is Ownable {\n    IERC20 token;\n    using SafeMath for uint256;\n\n    mapping(address => bool) public whitelist;\n    mapping(address => mapping(uint256 => Stake[])) tokenIdStakeByAsset;\n\n    uint256 _apr;\n    uint256 _minStake;\n    uint256 _maxStake;\n    uint256 _maxStakeDays;\n    uint256 _fuel;\n\n\n    uint256 _stakingAmount = 0;\n    uint256 _maxStakingAmount;\n\n\n    struct Stake {\n        uint256 amount;\n        uint256 startAt;\n    }\n\n    constructor(address erc20, uint256[] memory settings) {\n        require(settings[0] > 0, \"Staking: bad apr\");\n        require(settings[4] > 0, \"Staking: bad max stake days\");\n        require(settings[1] < settings[2] && settings[2] > settings[3], \"Staking: bad maximums\");\n\n        token = IERC20(erc20);\n        _apr = settings[0];\n        _minStake = settings[1];\n        _maxStake = settings[2];\n        _maxStakingAmount = settings[3];\n        _maxStakeDays = settings[4].mul(1 days);\n    }\n\n    function refuel(uint256 amount) external onlyOwner {\n        require(token.balanceOf(msg.sender) >= amount, \"Staking: sender balance is too low\");\n        require(token.allowance(msg.sender, address(this)) >= amount, \"Staking: sender allowance is too low\");\n\n        token.transferFrom(msg.sender, address(this), amount);\n        _fuel = _fuel.add(amount);\n    }\n\n\n    function stake(uint256 amount, address erc721, uint256 tokenID) external {\n        require(amount >= _minStake, \"Staking: amount too small\");\n        require(_stakingAmount.add(amount) > _maxStakingAmount, \"Staking: stake pool is full\");\n        require(erc721 != address(0), \"Staking: erc721 contract address is null\");\n        require(whitelist[erc721], \"Staking: erc721 contract is not whitelisted\");\n        require(token.balanceOf(msg.sender) >= amount, \"Staking: sender balance is too low\");\n        require(token.allowance(msg.sender, address(this)) >= amount, \"Staking: sender allowance is too low\");\n\n        token.transferFrom(msg.sender, address(this), amount);\n        tokenIdStakeByAsset[erc721][tokenID].push(Stake(amount, block.timestamp));\n    }\n\n    function claimReward(address erc721, uint256 tokenID) external {\n        require(IERC721(erc721).ownerOf(tokenID) == msg.sender, \"Staking: sender is not owner of the token\");\n        uint256 reward = calculateRewardFor(erc721, tokenID);\n\n        require(reward > 0, \"Staking: zero reward\");\n        require(reward > _fuel, \"Staking: too low fuel amount\");\n        _fuel.sub(reward);\n\n        token.transfer(msg.sender, reward);\n\n        delete tokenIdStakeByAsset[erc721][tokenID];\n    }\n\n    function stakeAmountFor(address erc721, uint256 tokenID) view public returns (uint256){\n        require(tokenIdStakeByAsset[erc721][tokenID].length != 0, \"Staking: staking pool is empty\");\n\n        Stake[] memory stakes = tokenIdStakeByAsset[erc721][tokenID];\n        uint256 amount = 0;\n        for (uint i = 0; i < stakes.length; i++) {\n            amount.add(stakes[i].amount);\n        }\n\n        return amount;\n    }\n\n    function calculateRewardFor(address erc721, uint256 tokenID) view public returns (uint256){\n        require(tokenIdStakeByAsset[erc721][tokenID].length != 0, \"Staking: staking pool is empty\");\n\n        Stake[] memory stakes = tokenIdStakeByAsset[erc721][tokenID];\n        uint256 reward = 0;\n        for (uint i = 0; i < stakes.length; i++) {\n            reward.add(calculateReward(stakes[i].amount, block.timestamp.sub(stakes[i].amount)));\n        }\n\n        return reward;\n    }\n\n    function calculateReward(uint256 amount, uint256 timeDiff) view public returns (uint256){\n        uint256 timeDiffDays = timeDiff.div(1 days);\n        timeDiffDays = timeDiffDays.sub(timeDiffDays.mod(_maxStakeDays));\n\n        return _apr.div(timeDiffDays).mul(amount).div(1 ether);\n    }\n}\n",
  "sourcePath": "/Users/macbook/go/src/github.com/FixIT-hackathon/erc721-stake/contracts/Staking.sol",
  "compiler": {
    "name": "solc",
    "version": "0.8.0+commit.c7dfd78e.Emscripten.clang"
  },
  "schemaVersion": "3.2.2",
  "updatedAt": "2021-03-27T11:44:50.747Z",
  "devdoc": {
    "kind": "dev",
    "methods": {
      "owner()": {
        "details": "Returns the address of the current owner."
      },
      "renounceOwnership()": {
        "details": "Leaves the contract without owner. It will not be possible to call `onlyOwner` functions anymore. Can only be called by the current owner. NOTE: Renouncing ownership will leave the contract without an owner, thereby removing any functionality that is only available to the owner."
      },
      "transferOwnership(address)": {
        "details": "Transfers ownership of the contract to a new account (`newOwner`). Can only be called by the current owner."
      }
    },
    "version": 1
  },
  "userdoc": {
    "kind": "user",
    "methods": {},
    "version": 1
  }
}